{
  "_format": "hh3-artifact-1",
  "contractName": "GameToken",
  "sourceName": "contracts/tokenFactory.sol",
  "abi": [
    {
      "inputs": [],
      "stateMutability": "nonpayable",
      "type": "constructor"
    },
    {
      "inputs": [
        {
          "internalType": "address",
          "name": "spender",
          "type": "address"
        },
        {
          "internalType": "uint256",
          "name": "allowance",
          "type": "uint256"
        },
        {
          "internalType": "uint256",
          "name": "needed",
          "type": "uint256"
        }
      ],
      "name": "ERC20InsufficientAllowance",
      "type": "error"
    },
    {
      "inputs": [
        {
          "internalType": "address",
          "name": "sender",
          "type": "address"
        },
        {
          "internalType": "uint256",
          "name": "balance",
          "type": "uint256"
        },
        {
          "internalType": "uint256",
          "name": "needed",
          "type": "uint256"
        }
      ],
      "name": "ERC20InsufficientBalance",
      "type": "error"
    },
    {
      "inputs": [
        {
          "internalType": "address",
          "name": "approver",
          "type": "address"
        }
      ],
      "name": "ERC20InvalidApprover",
      "type": "error"
    },
    {
      "inputs": [
        {
          "internalType": "address",
          "name": "receiver",
          "type": "address"
        }
      ],
      "name": "ERC20InvalidReceiver",
      "type": "error"
    },
    {
      "inputs": [
        {
          "internalType": "address",
          "name": "sender",
          "type": "address"
        }
      ],
      "name": "ERC20InvalidSender",
      "type": "error"
    },
    {
      "inputs": [
        {
          "internalType": "address",
          "name": "spender",
          "type": "address"
        }
      ],
      "name": "ERC20InvalidSpender",
      "type": "error"
    },
    {
      "inputs": [
        {
          "internalType": "address",
          "name": "owner",
          "type": "address"
        }
      ],
      "name": "OwnableInvalidOwner",
      "type": "error"
    },
    {
      "inputs": [
        {
          "internalType": "address",
          "name": "account",
          "type": "address"
        }
      ],
      "name": "OwnableUnauthorizedAccount",
      "type": "error"
    },
    {
      "inputs": [],
      "name": "ReentrancyGuardReentrantCall",
      "type": "error"
    },
    {
      "anonymous": false,
      "inputs": [
        {
          "indexed": true,
          "internalType": "address",
          "name": "owner",
          "type": "address"
        },
        {
          "indexed": true,
          "internalType": "address",
          "name": "spender",
          "type": "address"
        },
        {
          "indexed": false,
          "internalType": "uint256",
          "name": "value",
          "type": "uint256"
        }
      ],
      "name": "Approval",
      "type": "event"
    },
    {
      "anonymous": false,
      "inputs": [
        {
          "indexed": true,
          "internalType": "address",
          "name": "admin",
          "type": "address"
        }
      ],
      "name": "GameAdminAdded",
      "type": "event"
    },
    {
      "anonymous": false,
      "inputs": [
        {
          "indexed": true,
          "internalType": "address",
          "name": "admin",
          "type": "address"
        }
      ],
      "name": "GameAdminRemoved",
      "type": "event"
    },
    {
      "anonymous": false,
      "inputs": [
        {
          "indexed": true,
          "internalType": "address",
          "name": "previousOwner",
          "type": "address"
        },
        {
          "indexed": true,
          "internalType": "address",
          "name": "newOwner",
          "type": "address"
        }
      ],
      "name": "OwnershipTransferred",
      "type": "event"
    },
    {
      "anonymous": false,
      "inputs": [
        {
          "indexed": false,
          "internalType": "uint256",
          "name": "newRate",
          "type": "uint256"
        }
      ],
      "name": "RewardRateUpdated",
      "type": "event"
    },
    {
      "anonymous": false,
      "inputs": [
        {
          "indexed": true,
          "internalType": "address",
          "name": "player",
          "type": "address"
        },
        {
          "indexed": false,
          "internalType": "uint256",
          "name": "coins",
          "type": "uint256"
        },
        {
          "indexed": false,
          "internalType": "uint256",
          "name": "tokens",
          "type": "uint256"
        },
        {
          "indexed": false,
          "internalType": "bytes32",
          "name": "sessionId",
          "type": "bytes32"
        }
      ],
      "name": "TokensMinted",
      "type": "event"
    },
    {
      "anonymous": false,
      "inputs": [
        {
          "indexed": true,
          "internalType": "address",
          "name": "from",
          "type": "address"
        },
        {
          "indexed": true,
          "internalType": "address",
          "name": "to",
          "type": "address"
        },
        {
          "indexed": false,
          "internalType": "uint256",
          "name": "value",
          "type": "uint256"
        }
      ],
      "name": "Transfer",
      "type": "event"
    },
    {
      "inputs": [
        {
          "internalType": "address",
          "name": "admin",
          "type": "address"
        }
      ],
      "name": "addGameAdmin",
      "outputs": [],
      "stateMutability": "nonpayable",
      "type": "function"
    },
    {
      "inputs": [
        {
          "internalType": "address",
          "name": "owner",
          "type": "address"
        },
        {
          "internalType": "address",
          "name": "spender",
          "type": "address"
        }
      ],
      "name": "allowance",
      "outputs": [
        {
          "internalType": "uint256",
          "name": "",
          "type": "uint256"
        }
      ],
      "stateMutability": "view",
      "type": "function"
    },
    {
      "inputs": [
        {
          "internalType": "address",
          "name": "spender",
          "type": "address"
        },
        {
          "internalType": "uint256",
          "name": "value",
          "type": "uint256"
        }
      ],
      "name": "approve",
      "outputs": [
        {
          "internalType": "bool",
          "name": "",
          "type": "bool"
        }
      ],
      "stateMutability": "nonpayable",
      "type": "function"
    },
    {
      "inputs": [
        {
          "internalType": "address",
          "name": "account",
          "type": "address"
        }
      ],
      "name": "balanceOf",
      "outputs": [
        {
          "internalType": "uint256",
          "name": "",
          "type": "uint256"
        }
      ],
      "stateMutability": "view",
      "type": "function"
    },
    {
      "inputs": [
        {
          "internalType": "address[]",
          "name": "players",
          "type": "address[]"
        },
        {
          "internalType": "uint256[]",
          "name": "coinsCollected",
          "type": "uint256[]"
        },
        {
          "internalType": "bytes32[]",
          "name": "sessionIds",
          "type": "bytes32[]"
        }
      ],
      "name": "batchMintRewards",
      "outputs": [],
      "stateMutability": "nonpayable",
      "type": "function"
    },
    {
      "inputs": [
        {
          "internalType": "bytes32",
          "name": "",
          "type": "bytes32"
        }
      ],
      "name": "claimedSessions",
      "outputs": [
        {
          "internalType": "bool",
          "name": "",
          "type": "bool"
        }
      ],
      "stateMutability": "view",
      "type": "function"
    },
    {
      "inputs": [],
      "name": "decimals",
      "outputs": [
        {
          "internalType": "uint8",
          "name": "",
          "type": "uint8"
        }
      ],
      "stateMutability": "view",
      "type": "function"
    },
    {
      "inputs": [
        {
          "internalType": "address",
          "name": "",
          "type": "address"
        }
      ],
      "name": "gameAdmins",
      "outputs": [
        {
          "internalType": "bool",
          "name": "",
          "type": "bool"
        }
      ],
      "stateMutability": "view",
      "type": "function"
    },
    {
      "inputs": [
        {
          "internalType": "address",
          "name": "player",
          "type": "address"
        }
      ],
      "name": "getPlayerStats",
      "outputs": [
        {
          "internalType": "uint256",
          "name": "balance",
          "type": "uint256"
        },
        {
          "internalType": "uint256",
          "name": "totalTokensEarned",
          "type": "uint256"
        }
      ],
      "stateMutability": "view",
      "type": "function"
    },
    {
      "inputs": [
        {
          "internalType": "bytes32",
          "name": "sessionId",
          "type": "bytes32"
        }
      ],
      "name": "isSessionClaimed",
      "outputs": [
        {
          "internalType": "bool",
          "name": "",
          "type": "bool"
        }
      ],
      "stateMutability": "view",
      "type": "function"
    },
    {
      "inputs": [
        {
          "internalType": "address",
          "name": "player",
          "type": "address"
        },
        {
          "internalType": "uint256",
          "name": "coinsCollected",
          "type": "uint256"
        },
        {
          "internalType": "bytes32",
          "name": "sessionId",
          "type": "bytes32"
        }
      ],
      "name": "mintReward",
      "outputs": [],
      "stateMutability": "nonpayable",
      "type": "function"
    },
    {
      "inputs": [],
      "name": "name",
      "outputs": [
        {
          "internalType": "string",
          "name": "",
          "type": "string"
        }
      ],
      "stateMutability": "view",
      "type": "function"
    },
    {
      "inputs": [],
      "name": "owner",
      "outputs": [
        {
          "internalType": "address",
          "name": "",
          "type": "address"
        }
      ],
      "stateMutability": "view",
      "type": "function"
    },
    {
      "inputs": [
        {
          "internalType": "address",
          "name": "admin",
          "type": "address"
        }
      ],
      "name": "removeGameAdmin",
      "outputs": [],
      "stateMutability": "nonpayable",
      "type": "function"
    },
    {
      "inputs": [],
      "name": "renounceOwnership",
      "outputs": [],
      "stateMutability": "nonpayable",
      "type": "function"
    },
    {
      "inputs": [],
      "name": "rewardRate",
      "outputs": [
        {
          "internalType": "uint256",
          "name": "",
          "type": "uint256"
        }
      ],
      "stateMutability": "view",
      "type": "function"
    },
    {
      "inputs": [
        {
          "internalType": "uint256",
          "name": "newRate",
          "type": "uint256"
        }
      ],
      "name": "setRewardRate",
      "outputs": [],
      "stateMutability": "nonpayable",
      "type": "function"
    },
    {
      "inputs": [],
      "name": "symbol",
      "outputs": [
        {
          "internalType": "string",
          "name": "",
          "type": "string"
        }
      ],
      "stateMutability": "view",
      "type": "function"
    },
    {
      "inputs": [
        {
          "internalType": "address",
          "name": "",
          "type": "address"
        }
      ],
      "name": "totalEarned",
      "outputs": [
        {
          "internalType": "uint256",
          "name": "",
          "type": "uint256"
        }
      ],
      "stateMutability": "view",
      "type": "function"
    },
    {
      "inputs": [],
      "name": "totalSupply",
      "outputs": [
        {
          "internalType": "uint256",
          "name": "",
          "type": "uint256"
        }
      ],
      "stateMutability": "view",
      "type": "function"
    },
    {
      "inputs": [
        {
          "internalType": "address",
          "name": "to",
          "type": "address"
        },
        {
          "internalType": "uint256",
          "name": "value",
          "type": "uint256"
        }
      ],
      "name": "transfer",
      "outputs": [
        {
          "internalType": "bool",
          "name": "",
          "type": "bool"
        }
      ],
      "stateMutability": "nonpayable",
      "type": "function"
    },
    {
      "inputs": [
        {
          "internalType": "address",
          "name": "from",
          "type": "address"
        },
        {
          "internalType": "address",
          "name": "to",
          "type": "address"
        },
        {
          "internalType": "uint256",
          "name": "value",
          "type": "uint256"
        }
      ],
      "name": "transferFrom",
      "outputs": [
        {
          "internalType": "bool",
          "name": "",
          "type": "bool"
        }
      ],
      "stateMutability": "nonpayable",
      "type": "function"
    },
    {
      "inputs": [
        {
          "internalType": "address",
          "name": "newOwner",
          "type": "address"
        }
      ],
      "name": "transferOwnership",
      "outputs": [],
      "stateMutability": "nonpayable",
      "type": "function"
    }
  ],
  "bytecode": "0x6080604052670de0b6b3a7640000600a5534801561001b575f5ffd5b50336040518060400160405280600a81526020016923b0b6b2902a37b5b2b760b11b8152506040518060400160405280600481526020016347454d5360e01b815250816003908161006c91906101c1565b50600461007982826101c1565b5050506001600160a01b0381166100a957604051631e4fbdf760e01b81525f600482015260240160405180910390fd5b6100b2816100d8565b5060016006819055335f908152600960205260409020805460ff1916909117905561027b565b600580546001600160a01b038381166001600160a01b0319831681179093556040519116919082907f8be0079c531659141344cd1fd0a4f28419497f9722a3daafe3b4186f6b6457e0905f90a35050565b634e487b7160e01b5f52604160045260245ffd5b600181811c9082168061015157607f821691505b60208210810361016f57634e487b7160e01b5f52602260045260245ffd5b50919050565b601f8211156101bc57805f5260205f20601f840160051c8101602085101561019a5750805b601f840160051c820191505b818110156101b9575f81556001016101a6565b50505b505050565b81516001600160401b038111156101da576101da610129565b6101ee816101e8845461013d565b84610175565b6020601f821160018114610220575f83156102095750848201515b5f19600385901b1c1916600184901b1784556101b9565b5f84815260208120601f198516915b8281101561024f578785015182556020948501946001909201910161022f565b508482101561026c57868401515f19600387901b60f8161c191681555b50505050600190811b01905550565b6112dc806102885f395ff3fe608060405234801561000f575f5ffd5b5060043610610148575f3560e01c80637b0a47ee116100bf578063a9059cbb11610079578063a9059cbb146102e5578063be916feb146102f8578063c986d85d1461031a578063dd62ed3e1461033c578063f2fde38b14610374578063fbe2906114610387575f5ffd5b80637b0a47ee1461028057806387f01976146102895780638da5cb5b1461029c57806395d89b41146102b75780639d0f0785146102bf5780639e447fc6146102d2575f5ffd5b8063313ce56711610110578063313ce567146101c75780634fd66eae146101d6578063589da7f01461021e578063649aca4a1461023157806370a0823114610250578063715018a614610278575f5ffd5b806306fdde031461014c578063095ea7b31461016a57806318160ddd1461018d57806323b872dd1461019f5780632dad51e3146101b2575b5f5ffd5b6101546103a9565b6040516101619190610faa565b60405180910390f35b61017d610178366004610ffa565b610439565b6040519015158152602001610161565b6002545b604051908152602001610161565b61017d6101ad366004611022565b610452565b6101c56101c036600461105c565b610475565b005b60405160128152602001610161565b6102096101e436600461105c565b6001600160a01b03165f90815260208181526040808320546008909252909120549091565b60408051928352602083019190915201610161565b6101c561022c36600461105c565b610520565b61019161023f36600461105c565b60086020525f908152604090205481565b61019161025e36600461105c565b6001600160a01b03165f9081526020819052604090205490565b6101c5610616565b610191600a5481565b6101c561029736600461107c565b610629565b6005546040516001600160a01b039091168152602001610161565b610154610813565b6101c56102cd3660046110f4565b610822565b6101c56102e0366004611193565b610b11565b61017d6102f3366004610ffa565b610ba3565b61017d610306366004611193565b60076020525f908152604090205460ff1681565b61017d61032836600461105c565b60096020525f908152604090205460ff1681565b61019161034a3660046111aa565b6001600160a01b039182165f90815260016020908152604080832093909416825291909152205490565b6101c561038236600461105c565b610bb0565b61017d610395366004611193565b5f9081526007602052604090205460ff1690565b6060600380546103b8906111db565b80601f01602080910402602001604051908101604052809291908181526020018280546103e4906111db565b801561042f5780601f106104065761010080835404028352916020019161042f565b820191905f5260205f20905b81548152906001019060200180831161041257829003601f168201915b5050505050905090565b5f33610446818585610bed565b60019150505b92915050565b5f3361045f858285610bfa565b61046a858585610c75565b506001949350505050565b61047d610cd2565b6001600160a01b0381165f9081526009602052604090205460ff166104d85760405162461bcd60e51b815260206004820152600c60248201526b2737ba1030b71030b236b4b760a11b60448201526064015b60405180910390fd5b6001600160a01b0381165f81815260096020526040808220805460ff19169055517ff90b00a0cb036e91f0c685c99f74d93ee365bfb634958d329317b5b5d940e4a49190a250565b610528610cd2565b6001600160a01b0381166105705760405162461bcd60e51b815260206004820152600f60248201526e496e76616c6964206164647265737360881b60448201526064016104cf565b6001600160a01b0381165f9081526009602052604090205460ff16156105cb5760405162461bcd60e51b815260206004820152601060248201526f20b63932b0b23c9030b71030b236b4b760811b60448201526064016104cf565b6001600160a01b0381165f81815260096020526040808220805460ff19166001179055517f6cece1da337fb689aacc6dd4a3bbe497c3365fc058a64330201e834c6c2c93a89190a250565b61061e610cd2565b6106275f610cff565b565b610631610d50565b335f9081526009602052604090205460ff1661065f5760405162461bcd60e51b81526004016104cf90611213565b6001600160a01b0383166106ae5760405162461bcd60e51b8152602060048201526016602482015275496e76616c696420706c61796572206164647265737360501b60448201526064016104cf565b5f82116106fd5760405162461bcd60e51b815260206004820152601c60248201527f4d75737420636f6c6c656374206174206c65617374203120636f696e0000000060448201526064016104cf565b5f8181526007602052604090205460ff161561075b5760405162461bcd60e51b815260206004820152601760248201527f53657373696f6e20616c726561647920636c61696d656400000000000000000060448201526064016104cf565b5f818152600760205260408120805460ff19166001179055600a546107809084611268565b905061078c8482610d7a565b6001600160a01b0384165f90815260086020526040812080548392906107b390849061127f565b909155505060408051848152602081018390529081018390526001600160a01b038516907e6c1e1d851f6bdbc1f92243da7f62a149ffcc1d89d66c7493347ee0d622125a9060600160405180910390a25061080e6001600655565b505050565b6060600480546103b8906111db565b61082a610d50565b335f9081526009602052604090205460ff166108585760405162461bcd60e51b81526004016104cf90611213565b848314801561086657508481145b6108b25760405162461bcd60e51b815260206004820152601860248201527f4172726179206c656e67746873206d757374206d61746368000000000000000060448201526064016104cf565b5f5b85811015610afe5760075f8484848181106108d1576108d1611292565b602090810292909201358352508101919091526040015f205460ff1615801561092957505f87878381811061090857610908611292565b905060200201602081019061091d919061105c565b6001600160a01b031614155b801561094c57505f85858381811061094357610943611292565b90506020020135115b15610af657600160075f85858581811061096857610968611292565b9050602002013581526020019081526020015f205f6101000a81548160ff0219169083151502179055505f600a548686848181106109a8576109a8611292565b905060200201356109b99190611268565b90506109eb8888848181106109d0576109d0611292565b90506020020160208101906109e5919061105c565b82610d7a565b8060085f8a8a86818110610a0157610a01611292565b9050602002016020810190610a16919061105c565b6001600160a01b03166001600160a01b031681526020019081526020015f205f828254610a43919061127f565b909155508890508783818110610a5b57610a5b611292565b9050602002016020810190610a70919061105c565b6001600160a01b03167e6c1e1d851f6bdbc1f92243da7f62a149ffcc1d89d66c7493347ee0d622125a878785818110610aab57610aab611292565b9050602002013583878787818110610ac557610ac5611292565b90506020020135604051610aec939291909283526020830191909152604082015260600190565b60405180910390a2505b6001016108b4565b50610b096001600655565b505050505050565b610b19610cd2565b5f8111610b685760405162461bcd60e51b815260206004820152601b60248201527f52617465206d7573742062652067726561746572207468616e2030000000000060448201526064016104cf565b600a8190556040518181527f41d466ebd06fb97e7786086ac8b69b7eb7da798592036251291d34e9791cde019060200160405180910390a150565b5f33610446818585610c75565b610bb8610cd2565b6001600160a01b038116610be157604051631e4fbdf760e01b81525f60048201526024016104cf565b610bea81610cff565b50565b61080e8383836001610db2565b6001600160a01b038381165f908152600160209081526040808320938616835292905220545f198114610c6f5781811015610c6157604051637dc7a0d960e11b81526001600160a01b038416600482015260248101829052604481018390526064016104cf565b610c6f84848484035f610db2565b50505050565b6001600160a01b038316610c9e57604051634b637e8f60e11b81525f60048201526024016104cf565b6001600160a01b038216610cc75760405163ec442f0560e01b81525f60048201526024016104cf565b61080e838383610e84565b6005546001600160a01b031633146106275760405163118cdaa760e01b81523360048201526024016104cf565b600580546001600160a01b038381166001600160a01b0319831681179093556040519116919082907f8be0079c531659141344cd1fd0a4f28419497f9722a3daafe3b4186f6b6457e0905f90a35050565b600260065403610d7357604051633ee5aeb560e01b815260040160405180910390fd5b6002600655565b6001600160a01b038216610da35760405163ec442f0560e01b81525f60048201526024016104cf565b610dae5f8383610e84565b5050565b6001600160a01b038416610ddb5760405163e602df0560e01b81525f60048201526024016104cf565b6001600160a01b038316610e0457604051634a1406b160e11b81525f60048201526024016104cf565b6001600160a01b038085165f9081526001602090815260408083209387168352929052208290558015610c6f57826001600160a01b0316846001600160a01b03167f8c5be1e5ebec7d5bd14f71427d1e84f3dd0314c0f7b2291e5b200ac8c7c3b92584604051610e7691815260200190565b60405180910390a350505050565b6001600160a01b038316610eae578060025f828254610ea3919061127f565b90915550610f1e9050565b6001600160a01b0383165f9081526020819052604090205481811015610f005760405163391434e360e21b81526001600160a01b038516600482015260248101829052604481018390526064016104cf565b6001600160a01b0384165f9081526020819052604090209082900390555b6001600160a01b038216610f3a57600280548290039055610f58565b6001600160a01b0382165f9081526020819052604090208054820190555b816001600160a01b0316836001600160a01b03167fddf252ad1be2c89b69c2b068fc378daa952ba7f163c4a11628f55a4df523b3ef83604051610f9d91815260200190565b60405180910390a3505050565b602081525f82518060208401528060208501604085015e5f604082850101526040601f19601f83011684010191505092915050565b80356001600160a01b0381168114610ff5575f5ffd5b919050565b5f5f6040838503121561100b575f5ffd5b61101483610fdf565b946020939093013593505050565b5f5f5f60608486031215611034575f5ffd5b61103d84610fdf565b925061104b60208501610fdf565b929592945050506040919091013590565b5f6020828403121561106c575f5ffd5b61107582610fdf565b9392505050565b5f5f5f6060848603121561108e575f5ffd5b61109784610fdf565b95602085013595506040909401359392505050565b5f5f83601f8401126110bc575f5ffd5b50813567ffffffffffffffff8111156110d3575f5ffd5b6020830191508360208260051b85010111156110ed575f5ffd5b9250929050565b5f5f5f5f5f5f60608789031215611109575f5ffd5b863567ffffffffffffffff81111561111f575f5ffd5b61112b89828a016110ac565b909750955050602087013567ffffffffffffffff81111561114a575f5ffd5b61115689828a016110ac565b909550935050604087013567ffffffffffffffff811115611175575f5ffd5b61118189828a016110ac565b979a9699509497509295939492505050565b5f602082840312156111a3575f5ffd5b5035919050565b5f5f604083850312156111bb575f5ffd5b6111c483610fdf565b91506111d260208401610fdf565b90509250929050565b600181811c908216806111ef57607f821691505b60208210810361120d57634e487b7160e01b5f52602260045260245ffd5b50919050565b60208082526021908201527f4f6e6c792067616d652061646d696e732063616e206d696e74207265776172646040820152607360f81b606082015260800190565b634e487b7160e01b5f52601160045260245ffd5b808202811582820484141761044c5761044c611254565b8082018082111561044c5761044c611254565b634e487b7160e01b5f52603260045260245ffdfea2646970667358221220d591822df174e90ed96ca98cf2f8f9797728212d549b0bc185c5c89545fac10664736f6c634300081c0033",
  "linkReferences": {},
  "deployedLinkReferences": {},
  "immutableReferences": {},
  "inputSourceName": "project/contracts/tokenFactory.sol",
  "buildInfoId": "solc-0_8_28-f28e13a709a4f5db83544fbb6a66b5c617327308"
}